{
  "contractName": "TokenSales",
  "abi": [
    {
      "constant": true,
      "inputs": [],
      "name": "nftAddress",
      "outputs": [
        {
          "name": "",
          "type": "address"
        }
      ],
      "payable": false,
      "stateMutability": "view",
      "type": "function"
    },
    {
      "constant": true,
      "inputs": [
        {
          "name": "",
          "type": "uint256"
        }
      ],
      "name": "toDate",
      "outputs": [
        {
          "name": "",
          "type": "string"
        }
      ],
      "payable": false,
      "stateMutability": "view",
      "type": "function"
    },
    {
      "constant": true,
      "inputs": [
        {
          "name": "",
          "type": "uint256"
        }
      ],
      "name": "tokenPrice",
      "outputs": [
        {
          "name": "",
          "type": "uint256"
        }
      ],
      "payable": false,
      "stateMutability": "view",
      "type": "function"
    },
    {
      "constant": true,
      "inputs": [
        {
          "name": "",
          "type": "uint256"
        }
      ],
      "name": "fromDate",
      "outputs": [
        {
          "name": "",
          "type": "string"
        }
      ],
      "payable": false,
      "stateMutability": "view",
      "type": "function"
    },
    {
      "inputs": [
        {
          "name": "_tokenAddress",
          "type": "address"
        }
      ],
      "payable": false,
      "stateMutability": "nonpayable",
      "type": "constructor"
    },
    {
      "constant": false,
      "inputs": [
        {
          "name": "_tokenId",
          "type": "uint256"
        },
        {
          "name": "_price",
          "type": "uint256"
        },
        {
          "name": "_fromDate",
          "type": "string"
        },
        {
          "name": "_toDate",
          "type": "string"
        }
      ],
      "name": "setForSaleEach",
      "outputs": [],
      "payable": false,
      "stateMutability": "nonpayable",
      "type": "function"
    },
    {
      "constant": false,
      "inputs": [
        {
          "name": "_tokenId",
          "type": "uint256"
        }
      ],
      "name": "purchaseToken",
      "outputs": [],
      "payable": true,
      "stateMutability": "payable",
      "type": "function"
    },
    {
      "constant": false,
      "inputs": [
        {
          "name": "_tokenId",
          "type": "uint256"
        }
      ],
      "name": "removeTokenOnSaleEach",
      "outputs": [],
      "payable": false,
      "stateMutability": "nonpayable",
      "type": "function"
    }
  ],
  "bytecode": "0x608060405234801561001057600080fd5b506040516020806112bf8339810180604052602081101561003057600080fd5b8101908080519060200190929190505050806000806101000a81548173ffffffffffffffffffffffffffffffffffffffff021916908373ffffffffffffffffffffffffffffffffffffffff1602179055505061122e806100916000396000f3fe6080604052600436106100705760003560e01c8063c2db2c421161004e578063c2db2c42146102f3578063d4ddce8a14610321578063f90fdc0714610370578063fc63f3ef1461042457610070565b80635bf8633a1461007557806395af4a45146100cc578063a11e22d91461023f575b600080fd5b34801561008157600080fd5b5061008a61045f565b604051808273ffffffffffffffffffffffffffffffffffffffff1673ffffffffffffffffffffffffffffffffffffffff16815260200191505060405180910390f35b3480156100d857600080fd5b5061023d600480360360808110156100ef57600080fd5b8101908080359060200190929190803590602001909291908035906020019064010000000081111561012057600080fd5b82018360208201111561013257600080fd5b8035906020019184600183028401116401000000008311171561015457600080fd5b91908080601f016020809104026020016040519081016040528093929190818152602001838380828437600081840152601f19601f820116905080830192505050505050509192919290803590602001906401000000008111156101b757600080fd5b8201836020820111156101c957600080fd5b803590602001918460018302840111640100000000831117156101eb57600080fd5b91908080601f016020809104026020016040519081016040528093929190818152602001838380828437600081840152601f19601f820116905080830192505050505050509192919290505050610484565b005b34801561024b57600080fd5b506102786004803603602081101561026257600080fd5b8101908080359060200190929190505050610919565b6040518080602001828103825283818151815260200191508051906020019080838360005b838110156102b857808201518184015260208101905061029d565b50505050905090810190601f1680156102e55780820380516001836020036101000a031916815260200191505b509250505060405180910390f35b61031f6004803603602081101561030957600080fd5b81019080803590602001909291905050506109c9565b005b34801561032d57600080fd5b5061035a6004803603602081101561034457600080fd5b8101908080359060200190929190505050610da6565b6040518082815260200191505060405180910390f35b34801561037c57600080fd5b506103a96004803603602081101561039357600080fd5b8101908080359060200190929190505050610dbe565b6040518080602001828103825283818151815260200191508051906020019080838360005b838110156103e95780820151818401526020810190506103ce565b50505050905090810190601f1680156104165780820380516001836020036101000a031916815260200191505b509250505060405180910390f35b34801561043057600080fd5b5061045d6004803603602081101561044757600080fd5b8101908080359060200190929190505050610e6e565b005b6000809054906101000a900473ffffffffffffffffffffffffffffffffffffffff1681565b60008060009054906101000a900473ffffffffffffffffffffffffffffffffffffffff1673ffffffffffffffffffffffffffffffffffffffff16636352211e866040518263ffffffff1660e01b81526004018082815260200191505060206040518083038186803b1580156104f857600080fd5b505afa15801561050c573d6000803e3d6000fd5b505050506040513d602081101561052257600080fd5b810190808051906020019092919050505090503373ffffffffffffffffffffffffffffffffffffffff168173ffffffffffffffffffffffffffffffffffffffff16146105d6576040517f08c379a00000000000000000000000000000000000000000000000000000000081526004018080602001828103825260198152602001807f63616c6c6572206973206e6f7420746f6b656e206f776e65720000000000000081525060200191505060405180910390fd5b600084101561064d576040517f08c379a00000000000000000000000000000000000000000000000000000000081526004018080602001828103825260188152602001807f7072696365206973206c6f776572207468616e207a65726f000000000000000081525060200191505060405180910390fd5b60405160200180807f3000000000000000000000000000000000000000000000000000000000000000815250600101905060405160208183030381529060405280519060200120826040516020018082805190602001908083835b602083106106cb57805182526020820191506020810190506020830392506106a8565b6001836020036101000a03801982511681845116808217855250505050505090500191505060405160208183030381529060405280519060200120141561077a576040517f08c379a00000000000000000000000000000000000000000000000000000000081526004018080602001828103825260158152602001807f61756374696f6e20646174652069732077726f6e67000000000000000000000081525060200191505060405180910390fd5b3073ffffffffffffffffffffffffffffffffffffffff166000809054906101000a900473ffffffffffffffffffffffffffffffffffffffff1673ffffffffffffffffffffffffffffffffffffffff1663081812fc876040518263ffffffff1660e01b81526004018082815260200191505060206040518083038186803b15801561080357600080fd5b505afa158015610817573d6000803e3d6000fd5b505050506040513d602081101561082d57600080fd5b810190808051906020019092919050505073ffffffffffffffffffffffffffffffffffffffff16146108aa576040517f08c379a000000000000000000000000000000000000000000000000000000000815260040180806020018281038252602f8152602001806111d4602f913960400191505060405180910390fd5b836001600087815260200190815260200160002081905550816002600087815260200190815260200160002090805190602001906108e992919061110d565b508260036000878152602001908152602001600020908051906020019061091192919061110d565b505050505050565b60026020528060005260406000206000915090508054600181600116156101000203166002900480601f0160208091040260200160405190810160405280929190818152602001828054600181600116156101000203166002900480156109c15780601f10610996576101008083540402835291602001916109c1565b820191906000526020600020905b8154815290600101906020018083116109a457829003601f168201915b505050505081565b60006001600083815260200190815260200160002054905060008060009054906101000a900473ffffffffffffffffffffffffffffffffffffffff1673ffffffffffffffffffffffffffffffffffffffff16636352211e846040518263ffffffff1660e01b81526004018082815260200191505060206040518083038186803b158015610a5557600080fd5b505afa158015610a69573d6000803e3d6000fd5b505050506040513d6020811015610a7f57600080fd5b8101908080519060200190929190505050905081341015610aeb576040517f08c379a00000000000000000000000000000000000000000000000000000000081526004018080602001828103825260218152602001806111b36021913960400191505060405180910390fd5b8073ffffffffffffffffffffffffffffffffffffffff163373ffffffffffffffffffffffffffffffffffffffff161415610b8d576040517f08c379a00000000000000000000000000000000000000000000000000000000081526004018080602001828103825260168152602001807f63616c6c657220697320746f6b656e2073656c6c65720000000000000000000081525060200191505060405180910390fd5b60008190508073ffffffffffffffffffffffffffffffffffffffff166108fc349081150290604051600060405180830381858888f19350505050158015610bd8573d6000803e3d6000fd5b506000809054906101000a900473ffffffffffffffffffffffffffffffffffffffff1673ffffffffffffffffffffffffffffffffffffffff166342842e0e8333876040518463ffffffff1660e01b8152600401808473ffffffffffffffffffffffffffffffffffffffff1673ffffffffffffffffffffffffffffffffffffffff1681526020018373ffffffffffffffffffffffffffffffffffffffff1673ffffffffffffffffffffffffffffffffffffffff1681526020018281526020019350505050600060405180830381600087803b158015610cb557600080fd5b505af1158015610cc9573d6000803e3d6000fd5b50505050600060016000868152602001908152602001600020819055506040518060400160405280600481526020017f6e756c6c00000000000000000000000000000000000000000000000000000000815250600260008681526020019081526020016000209080519060200190610d4292919061110d565b506040518060400160405280600481526020017f6e756c6c00000000000000000000000000000000000000000000000000000000815250600360008681526020019081526020016000209080519060200190610d9f92919061110d565b5050505050565b60016020528060005260406000206000915090505481565b60036020528060005260406000206000915090508054600181600116156101000203166002900480601f016020809104026020016040519081016040528092919081815260200182805460018160011615610100020316600290048015610e665780601f10610e3b57610100808354040283529160200191610e66565b820191906000526020600020905b815481529060010190602001808311610e4957829003601f168201915b505050505081565b60008111610ee4576040517f08c379a000000000000000000000000000000000000000000000000000000000815260040180806020018281038252600f8152602001807f746f6b656e4964206973206e756c6c000000000000000000000000000000000081525060200191505060405180910390fd5b60008060009054906101000a900473ffffffffffffffffffffffffffffffffffffffff1673ffffffffffffffffffffffffffffffffffffffff16636352211e836040518263ffffffff1660e01b81526004018082815260200191505060206040518083038186803b158015610f5857600080fd5b505afa158015610f6c573d6000803e3d6000fd5b505050506040513d6020811015610f8257600080fd5b810190808051906020019092919050505090508073ffffffffffffffffffffffffffffffffffffffff163373ffffffffffffffffffffffffffffffffffffffff1614611036576040517f08c379a000000000000000000000000000000000000000000000000000000000815260040180806020018281038252601a8152602001807f63616c6c6572206973206e6f7420746f6b656e2073656c6c657200000000000081525060200191505060405180910390fd5b600060016000848152602001908152602001600020819055506040518060400160405280600481526020017f6e756c6c000000000000000000000000000000000000000000000000000000008152506002600084815260200190815260200160002090805190602001906110ab92919061110d565b506040518060400160405280600481526020017f6e756c6c0000000000000000000000000000000000000000000000000000000081525060036000848152602001908152602001600020908051906020019061110892919061110d565b505050565b828054600181600116156101000203166002900490600052602060002090601f016020900481019282601f1061114e57805160ff191683800117855561117c565b8280016001018555821561117c579182015b8281111561117b578251825591602001919060010190611160565b5b509050611189919061118d565b5090565b6111af91905b808211156111ab576000816000905550600101611193565b5090565b9056fe63616c6c65722073656e74206b6c6179206c6f776572207468616e207072696365746f6b656e206f776e657220646964206e6f7420617070726f766520546f6b656e53616c657320636f6e7472616374a165627a7a72305820f8d5789bc17ed69d793905198ee115bb2f05b34f5494956a566aa0f6b4a03af50029",
  "source": "pragma solidity ^0.5.0;\n\nimport \"openzeppelin-solidity/contracts/token/ERC721/ERC721Full.sol\";\n\ncontract TokenSales {\n\n  ERC721Full public nftAddress;\n  mapping (uint256 => uint256) public tokenPrice;\n  mapping (uint256 => string) public toDate;\n  mapping (uint256 => string) public fromDate;\n  \n  constructor(address _tokenAddress) public {\n    nftAddress = ERC721Full(_tokenAddress);\n  }\n\n\n  //판매\n  //nft 매도 (하나씩)\n  function setForSaleEach(uint256 _tokenId, uint256 _price, string memory _fromDate, string memory _toDate) public {\n    address tokenOwner = nftAddress.ownerOf(_tokenId);\n    require(tokenOwner == msg.sender, \"caller is not token owner\");\n    require(_price >= 0, \"price is lower than zero\");\n    require(keccak256(abi.encodePacked(_toDate)) != keccak256(abi.encodePacked(\"0\")), \"auction date is wrong\");\n    require(nftAddress.getApproved(_tokenId) == address(this), \"token owner did not approve TokenSales contract\");\n    \n    tokenPrice[_tokenId] = _price;\n    toDate[_tokenId] = _toDate;\n    fromDate[_tokenId] = _fromDate;\n  }\n\n  //구매\n  //nft 매수\n  function purchaseToken(uint256 _tokenId) public payable {\n    uint256 price = tokenPrice[_tokenId];\n    address tokenSeller = nftAddress.ownerOf(_tokenId);\n    require(msg.value >= price, \"caller sent klay lower than price\");\n    require(msg.sender != tokenSeller, \"caller is token seller\");\n\n    address payable payableTokenSeller = address(uint160(tokenSeller));\n    payableTokenSeller.transfer(msg.value);\n    nftAddress.safeTransferFrom(tokenSeller, msg.sender, _tokenId);\n    \n    tokenPrice[_tokenId] = 0;\n    toDate[_tokenId] = 'null';\n    fromDate[_tokenId] = 'null';\n  }\n\n  //판매취소\n  //nft 매도 (하나씩) (토큰 price 0으로 초기화)\n  function removeTokenOnSaleEach(uint256 _tokenId) public {\n    require(_tokenId > 0, \"tokenId is null\");\n    address tokenSeller = nftAddress.ownerOf(_tokenId);\n    require(msg.sender == tokenSeller, \"caller is not token seller\");\n\n    tokenPrice[_tokenId] = 0;\n    toDate[_tokenId] = 'null';\n    fromDate[_tokenId] ='null';\n  }\n}\n",
  "sourcePath": "C:/Users/clari/Desktop/eco-contracts/contracts/TokenSales.sol",
  "compiler": {
    "name": "solc",
    "version": "0.5.8+commit.23d335f2.Emscripten.clang"
  },
  "schemaVersion": "3.0.13",
  "updatedAt": "2021-10-02T12:39:58.092Z",
  "devdoc": {
    "methods": {}
  },
  "userdoc": {
    "methods": {}
  }
}